{
  "_format": "hh-sol-artifact-1",
  "contractName": "ShippingInsurance",
  "sourceName": "ShippingInsurance.sol",
  "abi": [
    {
      "inputs": [],
      "stateMutability": "nonpayable",
      "type": "constructor"
    },
    {
      "anonymous": false,
      "inputs": [
        {
          "indexed": true,
          "internalType": "uint256",
          "name": "policyId",
          "type": "uint256"
        },
        {
          "indexed": false,
          "internalType": "string",
          "name": "evidence",
          "type": "string"
        }
      ],
      "name": "DamageReported",
      "type": "event"
    },
    {
      "anonymous": false,
      "inputs": [
        {
          "indexed": false,
          "internalType": "address",
          "name": "newOracle",
          "type": "address"
        }
      ],
      "name": "OracleUpdated",
      "type": "event"
    },
    {
      "anonymous": false,
      "inputs": [
        {
          "indexed": true,
          "internalType": "uint256",
          "name": "policyId",
          "type": "uint256"
        },
        {
          "indexed": false,
          "internalType": "address",
          "name": "to",
          "type": "address"
        },
        {
          "indexed": false,
          "internalType": "uint256",
          "name": "amount",
          "type": "uint256"
        }
      ],
      "name": "PayoutExecuted",
      "type": "event"
    },
    {
      "anonymous": false,
      "inputs": [
        {
          "indexed": true,
          "internalType": "uint256",
          "name": "policyId",
          "type": "uint256"
        },
        {
          "indexed": true,
          "internalType": "address",
          "name": "insured",
          "type": "address"
        },
        {
          "indexed": false,
          "internalType": "uint256",
          "name": "payoutAmount",
          "type": "uint256"
        }
      ],
      "name": "PolicyCreated",
      "type": "event"
    },
    {
      "inputs": [
        {
          "internalType": "address payable",
          "name": "_insured",
          "type": "address"
        },
        {
          "internalType": "uint256",
          "name": "_expiry",
          "type": "uint256"
        }
      ],
      "name": "createPolicy",
      "outputs": [
        {
          "internalType": "uint256",
          "name": "",
          "type": "uint256"
        }
      ],
      "stateMutability": "payable",
      "type": "function"
    },
    {
      "inputs": [],
      "name": "nextPolicyId",
      "outputs": [
        {
          "internalType": "uint256",
          "name": "",
          "type": "uint256"
        }
      ],
      "stateMutability": "view",
      "type": "function"
    },
    {
      "inputs": [],
      "name": "oracle",
      "outputs": [
        {
          "internalType": "address",
          "name": "",
          "type": "address"
        }
      ],
      "stateMutability": "view",
      "type": "function"
    },
    {
      "inputs": [],
      "name": "owner",
      "outputs": [
        {
          "internalType": "address",
          "name": "",
          "type": "address"
        }
      ],
      "stateMutability": "view",
      "type": "function"
    },
    {
      "inputs": [
        {
          "internalType": "uint256",
          "name": "",
          "type": "uint256"
        }
      ],
      "name": "policies",
      "outputs": [
        {
          "internalType": "address payable",
          "name": "insured",
          "type": "address"
        },
        {
          "internalType": "uint256",
          "name": "premium",
          "type": "uint256"
        },
        {
          "internalType": "uint256",
          "name": "payoutAmount",
          "type": "uint256"
        },
        {
          "internalType": "uint256",
          "name": "expiry",
          "type": "uint256"
        },
        {
          "internalType": "enum ShippingInsurance.Status",
          "name": "status",
          "type": "uint8"
        }
      ],
      "stateMutability": "view",
      "type": "function"
    },
    {
      "inputs": [
        {
          "internalType": "uint256",
          "name": "policyId",
          "type": "uint256"
        },
        {
          "internalType": "string",
          "name": "evidence",
          "type": "string"
        }
      ],
      "name": "reportDamage",
      "outputs": [],
      "stateMutability": "nonpayable",
      "type": "function"
    },
    {
      "inputs": [
        {
          "internalType": "address",
          "name": "_oracle",
          "type": "address"
        }
      ],
      "name": "setOracle",
      "outputs": [],
      "stateMutability": "nonpayable",
      "type": "function"
    },
    {
      "inputs": [
        {
          "internalType": "uint256",
          "name": "amount",
          "type": "uint256"
        },
        {
          "internalType": "address payable",
          "name": "to",
          "type": "address"
        }
      ],
      "name": "withdraw",
      "outputs": [],
      "stateMutability": "nonpayable",
      "type": "function"
    },
    {
      "stateMutability": "payable",
      "type": "receive"
    }
  ],
  "bytecode": "0x608060405234801561001057600080fd5b5033600260006101000a81548173ffffffffffffffffffffffffffffffffffffffff021916908373ffffffffffffffffffffffffffffffffffffffff160217905550611403806100616000396000f3fe60806040526004361061007e5760003560e01c80639abb9a281161004e5780639abb9a2814610132578063cad0b8db14610162578063cf2ded2c1461018d578063d3e89483146101b657610085565b8062f714ce1461008a5780637adbf973146100b35780637dc0d1d0146100dc5780638da5cb5b1461010757610085565b3661008557005b600080fd5b34801561009657600080fd5b506100b160048036038101906100ac9190610aee565b6101f7565b005b3480156100bf57600080fd5b506100da60048036038101906100d59190610b6c565b61037b565b005b3480156100e857600080fd5b506100f1610486565b6040516100fe9190610ba8565b60405180910390f35b34801561011357600080fd5b5061011c6104ac565b6040516101299190610ba8565b60405180910390f35b61014c60048036038101906101479190610bc3565b6104d2565b6040516101599190610c12565b60405180910390f35b34801561016e57600080fd5b50610177610696565b6040516101849190610c12565b60405180910390f35b34801561019957600080fd5b506101b460048036038101906101af9190610c92565b61069c565b005b3480156101c257600080fd5b506101dd60048036038101906101d89190610cf2565b6109ed565b6040516101ee959493929190610da5565b60405180910390f35b600260009054906101000a900473ffffffffffffffffffffffffffffffffffffffff1673ffffffffffffffffffffffffffffffffffffffff163373ffffffffffffffffffffffffffffffffffffffff1614610287576040517f08c379a000000000000000000000000000000000000000000000000000000000815260040161027e90610e55565b60405180910390fd5b814710156102ca576040517f08c379a00000000000000000000000000000000000000000000000000000000081526004016102c190610ec1565b60405180910390fd5b60008173ffffffffffffffffffffffffffffffffffffffff16836040516102f090610f12565b60006040518083038185875af1925050503d806000811461032d576040519150601f19603f3d011682016040523d82523d6000602084013e610332565b606091505b5050905080610376576040517f08c379a000000000000000000000000000000000000000000000000000000000815260040161036d90610f73565b60405180910390fd5b505050565b600260009054906101000a900473ffffffffffffffffffffffffffffffffffffffff1673ffffffffffffffffffffffffffffffffffffffff163373ffffffffffffffffffffffffffffffffffffffff161461040b576040517f08c379a000000000000000000000000000000000000000000000000000000000815260040161040290610e55565b60405180910390fd5b80600360006101000a81548173ffffffffffffffffffffffffffffffffffffffff021916908373ffffffffffffffffffffffffffffffffffffffff1602179055507f3df77beb5db05fcdd70a30fc8adf3f83f9501b68579455adbd100b81809403948160405161047b9190610ba8565b60405180910390a150565b600360009054906101000a900473ffffffffffffffffffffffffffffffffffffffff1681565b600260009054906101000a900473ffffffffffffffffffffffffffffffffffffffff1681565b6000803411610516576040517f08c379a000000000000000000000000000000000000000000000000000000000815260040161050d90610fdf565b60405180910390fd5b6000600a34610525919061102e565b9050600080600081548092919061053b90611070565b9190505590506040518060a001604052808673ffffffffffffffffffffffffffffffffffffffff1681526020013481526020018381526020018581526020016000600381111561058e5761058d610d2e565b5b8152506001600083815260200190815260200160002060008201518160000160006101000a81548173ffffffffffffffffffffffffffffffffffffffff021916908373ffffffffffffffffffffffffffffffffffffffff16021790555060208201518160010155604082015181600201556060820151816003015560808201518160040160006101000a81548160ff0219169083600381111561063457610633610d2e565b5b02179055509050508473ffffffffffffffffffffffffffffffffffffffff16817f601882301d3e3fce7fe3a99d4bb17ef5b6699b417bdd29f2bfb82e19fcbcb660846040516106839190610c12565b60405180910390a3809250505092915050565b60005481565b600360009054906101000a900473ffffffffffffffffffffffffffffffffffffffff1673ffffffffffffffffffffffffffffffffffffffff163373ffffffffffffffffffffffffffffffffffffffff161461072c576040517f08c379a000000000000000000000000000000000000000000000000000000000815260040161072390611104565b60405180910390fd5b60006001600085815260200190815260200160002090506000600381111561075757610756610d2e565b5b8160040160009054906101000a900460ff16600381111561077b5761077a610d2e565b5b146107bb576040517f08c379a00000000000000000000000000000000000000000000000000000000081526004016107b290611170565b60405180910390fd5b8060030154421115610802576040517f08c379a00000000000000000000000000000000000000000000000000000000081526004016107f9906111dc565b60405180910390fd5b8060020154471015610849576040517f08c379a000000000000000000000000000000000000000000000000000000000815260040161084090611248565b60405180910390fd5b60028160040160006101000a81548160ff0219169083600381111561087157610870610d2e565b5b021790555060008160000160009054906101000a900473ffffffffffffffffffffffffffffffffffffffff1673ffffffffffffffffffffffffffffffffffffffff1682600201546040516108c490610f12565b60006040518083038185875af1925050503d8060008114610901576040519150601f19603f3d011682016040523d82523d6000602084013e610906565b606091505b505090508061094a576040517f08c379a0000000000000000000000000000000000000000000000000000000008152600401610941906112b4565b60405180910390fd5b847f5249e3ac5398066a6c9ae35332eca8aefee83f252a3c817a65cee6d2d742cbfa858560405161097c929190611321565b60405180910390a2847fbeaa99d72a600712e4656a7da04b2cabe31fb50fbf8f5b5f96513b0a4f495c1a8360000160009054906101000a900473ffffffffffffffffffffffffffffffffffffffff1684600201546040516109de9291906113a4565b60405180910390a25050505050565b60016020528060005260406000206000915090508060000160009054906101000a900473ffffffffffffffffffffffffffffffffffffffff16908060010154908060020154908060030154908060040160009054906101000a900460ff16905085565b600080fd5b600080fd5b6000819050919050565b610a6d81610a5a565b8114610a7857600080fd5b50565b600081359050610a8a81610a64565b92915050565b600073ffffffffffffffffffffffffffffffffffffffff82169050919050565b6000610abb82610a90565b9050919050565b610acb81610ab0565b8114610ad657600080fd5b50565b600081359050610ae881610ac2565b92915050565b60008060408385031215610b0557610b04610a50565b5b6000610b1385828601610a7b565b9250506020610b2485828601610ad9565b9150509250929050565b6000610b3982610a90565b9050919050565b610b4981610b2e565b8114610b5457600080fd5b50565b600081359050610b6681610b40565b92915050565b600060208284031215610b8257610b81610a50565b5b6000610b9084828501610b57565b91505092915050565b610ba281610b2e565b82525050565b6000602082019050610bbd6000830184610b99565b92915050565b60008060408385031215610bda57610bd9610a50565b5b6000610be885828601610ad9565b9250506020610bf985828601610a7b565b9150509250929050565b610c0c81610a5a565b82525050565b6000602082019050610c276000830184610c03565b92915050565b600080fd5b600080fd5b600080fd5b60008083601f840112610c5257610c51610c2d565b5b8235905067ffffffffffffffff811115610c6f57610c6e610c32565b5b602083019150836001820283011115610c8b57610c8a610c37565b5b9250929050565b600080600060408486031215610cab57610caa610a50565b5b6000610cb986828701610a7b565b935050602084013567ffffffffffffffff811115610cda57610cd9610a55565b5b610ce686828701610c3c565b92509250509250925092565b600060208284031215610d0857610d07610a50565b5b6000610d1684828501610a7b565b91505092915050565b610d2881610ab0565b82525050565b7f4e487b7100000000000000000000000000000000000000000000000000000000600052602160045260246000fd5b60048110610d6e57610d6d610d2e565b5b50565b6000819050610d7f82610d5d565b919050565b6000610d8f82610d71565b9050919050565b610d9f81610d84565b82525050565b600060a082019050610dba6000830188610d1f565b610dc76020830187610c03565b610dd46040830186610c03565b610de16060830185610c03565b610dee6080830184610d96565b9695505050505050565b600082825260208201905092915050565b7f6e6f74206f776e65720000000000000000000000000000000000000000000000600082015250565b6000610e3f600983610df8565b9150610e4a82610e09565b602082019050919050565b60006020820190508181036000830152610e6e81610e32565b9050919050565b7f696e737566662066756e64730000000000000000000000000000000000000000600082015250565b6000610eab600c83610df8565b9150610eb682610e75565b602082019050919050565b60006020820190508181036000830152610eda81610e9e565b9050919050565b600081905092915050565b50565b6000610efc600083610ee1565b9150610f0782610eec565b600082019050919050565b6000610f1d82610eef565b9150819050919050565b7f7769746864726177206661696c65640000000000000000000000000000000000600082015250565b6000610f5d600f83610df8565b9150610f6882610f27565b602082019050919050565b60006020820190508181036000830152610f8c81610f50565b9050919050565b7f7072656d69756d20726571756972656400000000000000000000000000000000600082015250565b6000610fc9601083610df8565b9150610fd482610f93565b602082019050919050565b60006020820190508181036000830152610ff881610fbc565b9050919050565b7f4e487b7100000000000000000000000000000000000000000000000000000000600052601160045260246000fd5b600061103982610a5a565b915061104483610a5a565b925082820261105281610a5a565b9150828204841483151761106957611068610fff565b5b5092915050565b600061107b82610a5a565b91507fffffffffffffffffffffffffffffffffffffffffffffffffffffffffffffffff82036110ad576110ac610fff565b5b600182019050919050565b7f6e6f74206f7261636c6500000000000000000000000000000000000000000000600082015250565b60006110ee600a83610df8565b91506110f9826110b8565b602082019050919050565b6000602082019050818103600083015261111d816110e1565b9050919050565b7f6e6f742061637469766500000000000000000000000000000000000000000000600082015250565b600061115a600a83610df8565b915061116582611124565b602082019050919050565b600060208201905081810360008301526111898161114d565b9050919050565b7f706f6c6963792065787069726564000000000000000000000000000000000000600082015250565b60006111c6600e83610df8565b91506111d182611190565b602082019050919050565b600060208201905081810360008301526111f5816111b9565b9050919050565b7f696e73756666696369656e742066756e64730000000000000000000000000000600082015250565b6000611232601283610df8565b915061123d826111fc565b602082019050919050565b6000602082019050818103600083015261126181611225565b9050919050565b7f7472616e73666572206661696c65640000000000000000000000000000000000600082015250565b600061129e600f83610df8565b91506112a982611268565b602082019050919050565b600060208201905081810360008301526112cd81611291565b9050919050565b82818337600083830152505050565b6000601f19601f8301169050919050565b60006113008385610df8565b935061130d8385846112d4565b611316836112e3565b840190509392505050565b6000602082019050818103600083015261133c8184866112f4565b90509392505050565b6000819050919050565b600061136a61136561136084610a90565b611345565b610a90565b9050919050565b600061137c8261134f565b9050919050565b600061138e82611371565b9050919050565b61139e81611383565b82525050565b60006040820190506113b96000830185611395565b6113c66020830184610c03565b939250505056fea2646970667358221220c279c2fad77c302857ee42066dd8de27a25826ac63bcedce2cc4596e019e1bcd64736f6c63430008130033",
  "linkReferences": {},
  "deployedLinkReferences": {}
}